{
  "contractName": "MetaCoin",
  "abi": [
    {
      "anonymous": false,
      "inputs": [
        {
          "indexed": false,
          "internalType": "uint256",
          "name": "number",
          "type": "uint256"
        }
      ],
      "name": "Increment",
      "type": "event"
    },
    {
      "inputs": [],
      "name": "number",
      "outputs": [
        {
          "internalType": "uint256",
          "name": "",
          "type": "uint256"
        }
      ],
      "stateMutability": "view",
      "type": "function",
      "constant": true
    },
    {
      "inputs": [
        {
          "internalType": "uint256",
          "name": "_num",
          "type": "uint256"
        }
      ],
      "name": "increment",
      "outputs": [
        {
          "internalType": "uint256",
          "name": "",
          "type": "uint256"
        }
      ],
      "stateMutability": "nonpayable",
      "type": "function"
    }
  ],
  "bytecode": "0x6080604052600a60005534801561001557600080fd5b50610213806100256000396000f3fe608060405234801561001057600080fd5b50600436106100365760003560e01c80637cf5dab01461003b5780638381f58a1461006b575b600080fd5b61005560048036038101906100509190610123565b610089565b604051610062919061015f565b60405180910390f35b6100736100e2565b604051610080919061015f565b60405180910390f35b60008160005461009991906101a9565b6000819055507f51af157c2eee40f68107a47a49c32fbbeb0a3c9e5cd37aa56e88e6be92368a816000546040516100d0919061015f565b60405180910390a16000549050919050565b60005481565b600080fd5b6000819050919050565b610100816100ed565b811461010b57600080fd5b50565b60008135905061011d816100f7565b92915050565b600060208284031215610139576101386100e8565b5b60006101478482850161010e565b91505092915050565b610159816100ed565b82525050565b60006020820190506101746000830184610150565b92915050565b7f4e487b7100000000000000000000000000000000000000000000000000000000600052601160045260246000fd5b60006101b4826100ed565b91506101bf836100ed565b92508282019050808211156101d7576101d661017a565b5b9291505056fea26469706673582212208b21abe2303a627859ddd36d5cbfd4cd6348f95a7e3709343a87e3548734d17764736f6c63430008110033",
  "immutableReferences": {},
  "source": "// SPDX-License-Identifier: MIT\npragma solidity ^0.8.7;\n\ncontract MetaCoin {\n    uint256 public number = 10;\n    event Increment(uint256 number);\n\n    // 0x7cf5dab00000000000000000000000000000000000000000000000000000000000000001\n    function increment(uint256 _num) public returns (uint256) {\n        number = number + _num;\n        emit Increment(number);\n        return number;\n    }\n}\n",
  "sourcePath": "/Users/leon/Desktop/sapphire-test/contracts/MetaCoin.sol",
  "compiler": {
    "name": "solc",
    "version": "0.8.17+commit.8df45f5f.Emscripten.clang"
  },
  "schemaVersion": "3.4.10",
  "updatedAt": "2022-09-16T15:58:47.240Z",
  "networkType": "ethereum",
  "devdoc": {
    "kind": "dev",
    "methods": {},
    "version": 1
  },
  "userdoc": {
    "kind": "user",
    "methods": {},
    "version": 1
  }
}